:020000040800F2
:100000005809002099010008811F0008611A0008A2
:100010007D1F00081D0600083D28000800000000A4
:10002000000000000000000000000000B1220008F5
:10003000DD06000800000000B51F00083523000899
:10004000B3010008B3010008B3010008B3010008C0
:10005000B3010008B3010008B3010008B3010008B0
:10006000B3010008B3010008B3010008B3010008A0
:10007000B3010008B3010008B3010008B301000890
:10008000B3010008B3010008B3010008B301000880
:10009000E9270008B301000821060008B3010008A1
:1000A000B3010008B3010008B3010008B301000860
:1000B000B3010008B3010008B3010008B301000850
:1000C000B3010008B3010008B3010008B301000840
:1000D000B30100087127000899270008C12700080C
:1000E000B3010008B3010008B301000800F002F8F2
:1000F00000F042F80AA090E8000C82448344AAF180
:100100000107DA4501D100F037F8AFF2090EBAE87D
:100110000F0013F0010F18BFFB1A43F0010318473B
:10012000602A0000802A0000103A24BF78C878C1F5
:10013000FAD8520724BF30C830C144BF04680C60ED
:10014000704700000023002400250026103A28BF35
:1001500078C1FBD8520728BF30C148BF0B60704739
:10016000752900F08180782900F0BA80002070475E
:100170001FB51FBD10B510BD00F015FA1146FFF7F1
:10018000F7FF02F06BFC00F033FA03B4FFF7F2FF65
:1001900003BC00F03BFA00000948804709480047CB
:1001A000FEE7FEE7FEE7FEE7FEE7FEE7FEE7FEE727
:1001B000FEE7FEE704480549054A064B7047000084
:1001C000A1230008ED000008580300205809002072
:1001D00058050020580500200FB41CB5074B06AA8F
:1001E0007B4469460090059800F093F90020694629
:1001F00000F0A2F91CBC5DF814FB000055030000E0
:100200002DE9F0410E460446002020622046E168B8
:10021000884730B3252805D0D4E901219047206ACA
:10022000401CF2E7E168204600278847050018D007
:10023000A5F14100192802D820354FF40067324655
:10024000294620462760FFF78BFF40B1012804D0E4
:10025000F61D26F007060836D8E7361DD6E72846ED
:10026000DAE7206ABDE8F0812DE9F0410646002476
:1002700010687529314616A510D0AFF3008000280C
:1002800002DA404213A507E031688A0701D512A5BA
:1002900002E0490704D511A5012401E0AFF3008075
:1002A00000210A2206F1240709E0B0FBF2FCB0FBB2
:1002B000F2F302FB1C00303078541846491C002829
:1002C000F3D123462A463046BDE8F04100F0C2B8DB
:1002D000000000002D0000002B00000020000000A6
:1002E00070B504460D4621461068AFF300802188A2
:1002F000090502D50F4A7A4402E00E4A7A440E32CA
:10030000002104F1240305E000F00F060009965DCA
:100310005E54491C0028F7D120780023000704D53B
:10032000702D02D009B1022311322046BDE8704081
:1003300000F090B8E027000010B5431C02E010F870
:10034000011B71B18107FAD14FF0013202C88C1A3A
:100350008C4314EAC211F9D0C01A0A0603D0C01E99
:1003600010BDC01A10BD0A0401D0801E10BD0902C4
:10037000FCD0401E10BD032A40F2308010F0030C68
:1003800000F0158011F8013BBCF1020F624498BFE8
:1003900011F801CB00F8013B38BF11F8013BA2F185
:1003A000040298BF00F801CB38BF00F8013B11F000
:1003B000030300F0C680083AC0F0088051F8043BFF
:1003C000083A51F804CBA0E80810F5E7121D5CBF0D
:1003D00051F8043B40F8043BAFF30080D20724BF40
:1003E00011F8013B11F801CB48BF11F8012B24BFD4
:1003F00000F8013B00F801CB48BF00F8012B704723
:100400004FF0000200B5134694469646203922BFAD
:10041000A0E80C50A0E80C50B1F12001BFF4F7AFF8
:10042000090728BFA0E80C5048BF0CC05DF804EBDA
:10043000890028BF40F8042B08BF704748BF20F848
:10044000022B11F0804F18BF00F8012B7047704746
:10045000704770472DE9F0470D469946924604468D
:1004600000F124080168880604D5E06921F0100134
:10047000216000E00120A84201DD471B00E00027C9
:10048000A1697A1902EB0900081AA0612078C00658
:1004900002D42046AFF30080002608E0D4E9012111
:1004A0001AF806009047206A401C761C20624E45D0
:1004B000F4DB2078C0060AD52046AFF3008006E0C2
:1004C000D4E9012130209047206A401C2062381E68
:1004D000A7F10107F4DC07E0D4E9012118F80500D1
:1004E0009047206A401C2062281EA5F10105F3DC1C
:1004F0002046AFF300802078000602D50220BDE838
:10050000F0870120FBE7000001694A1C02610878BE
:10051000704700B58FB0CDE9013100210591054943
:100520007944CDE9031011466846FFF769FE0FB024
:1005300000BD0000E5FFFFFF0A6802F8010B0A603A
:10054000704710B5203AC0F00B80B1E81850A0E811
:100550001850B1E81850A0E81850203ABFF4F5AF91
:100560005FEA027C24BFB1E81850A0E8185044BFED
:1005700018C918C0BDE810405FEA827C24BF51F85A
:10058000043B40F8043B08BF7047D20728BF31F84E
:10059000023B48BF11F8012B28BF20F8023B48BF9F
:1005A00000F8012B7047754600F02CF8AE460500A8
:1005B0006946534620F00700854618B020B5FFF77E
:1005C000F9FDBDE820404FF000064FF000074FF066
:1005D00000084FF0000BAC46ACE8C009ACE8C0091D
:1005E000ACE8C009ACE8C00921F007018D467047AE
:1005F00010B50446AFF300802046BDE81040FFF779
:10060000C4BD0000004870471000002001491820B8
:10061000ABBEFEE72600020070470000FEE70000C8
:1006200080B540F2D810C2F2000000F037FA80BD69
:10063000B0B582B040F2D81400204FF48035C2F239
:1006400000040190204600F015FA013D01D0002879
:10065000F8D085B146F20840C4F2000001684901B3
:100660000CD4016809010BD40068C0004FF00200EF
:1006700007D402B0B0BD032002B0B0BD002000E03E
:100680000120019040F2D81040F2980140F244322B
:10069000C2F20000C2F20001C2F2000201AB00F09F
:1006A00053F802B0B0BD000010B508A001F0CCFFB7
:1006B00040F2D814C2F20004204600F0EBFC2046C1
:1006C00000F008F902F054F910BD00BF63616E5FDD
:1006D0007265696E69740D0A0000000070470000C1
:1006E000EFF3108072B600BFFEE7000070B542F66F
:1006F00004360025C0F60006002400BF06EBC50145
:1007000056F83500496801F02BFAB0FA80F040093C
:10071000A8400135052D44EA0004EFD1204670BD04
:1007200090F82020013A012A04D8006800F1140250
:10073000002004E000F1240201204FF4802113681E
:10074000194311607047000010B590F820E0D0F810
:1007500000C0AEF1010EBEF1010FDCF808E00DD8CB
:100760001EF0E05F10D0CEF3016EBEF1030F11D189
:1007700000F1240101204FF4000233E000F12401D4
:1007800001204FF480222DE000F1240101204FF4DC
:10079000001227E0012000FA0EF01860886818B1F6
:1007A0004B6840EAC30001E008684005D1E9033422
:1007B00003430CEB0E10C0F88031C0F88441097D72
:1007C000012905D100F5C2710B6843F480730B60F9
:1007D0005168C0F88C11126800F5C071C0F888210A
:1007E000002001220B681A430A6010BDB0B50268F0
:1007F00090F82030013B012B27D8D2F800020123CA
:1008000040F00100C2F80002D1F814E0CC690EF00B
:100810001F0003FA00F0D2F81C326FEA000C834389
:10082000012CC2F81C3216D064BBD2F80C3203EA99
:100830000C03C2F80C32CB688C8844EA034302EB09
:10084000CE04C4F840320B4614E0416A41F48021E2
:1008500041620120B0BDD2F80C320343C2F80C3221
:100860000B688C8844EA034302EBCE04C4F84032A0
:1008700001F10C038C681B8843EA044302EBCE04AD
:10088000C4F84432D2F804328D6943EA0004D1F846
:1008900010E0096A002D08BF03EA0C04C2F8044204
:1008A000D2F81432BEF1000F43EA000408BF03EA95
:1008B0000C040129C2F8144204D1D2F81C120843D6
:1008C000C2F81C02D2F8000220F00100C2F80002B7
:1008D0000020B0BD002804BF0120704710B50446B9
:1008E00000F0D8FB204600F071FA2068016841F45E
:1008F000004101600020606284F8200010BD00000B
:10090000B0B500F027F8D8B1044640F2D410C2F2D6
:100910000000017840F2B01541F00101C2F200057B
:10092000017008A128462246FFF756FC284601F030
:100930008BFE042C02D0022C18BFB0BDFFF7B4FE12
:10094000B0BD00BF43414E315F4552524F523D252D
:10095000750D0A00406A704710B590F82040013CC0
:10096000012C0CD8D0F800C079B1DCF81040A407F5
:100970000FD100F1240101204FF4001270E000F1CA
:10098000240101204FF480226AE0DCF80C40A40727
:100990006AD0046804EB011CDCF8B0410CF5D87E89
:1009A00014F004049460DCF8B04119BFE40854600A
:1009B000640D1460DEF80040002904F00204D460E5
:1009C000DCF8B44104F00F041461DCF8B441C4F362
:1009D00007249461DCF8B4414FEA14445461DCF814
:1009E000B8211A70026802EB0112D2F8B8214FEA5E
:1009F00012225A70026802EB0112D2F8B8214FEAB3
:100A000012429A70026802EB0112D2F8B8214FEA42
:100A10001262DA70026802EB0112D2F8BC211A717C
:100A2000026802EB0112D2F8BC214FEA12225A717D
:100A3000026802EB0112D2F8BC214FEA12429A710D
:100A4000026802EB0112D2F8BC214FEA1262DA719D
:100A5000006814BF00F1100100F10C0100202022F9
:100A60000B681A430A6010BD00F1240101204FF405
:100A70000012F5E790F820100139012984BF002009
:100A800070470068816882688068C1F38061C2F342
:100A9000C0621144C0F30070084470472DE9F04F64
:100AA00081B0044600684669D0F804908768D0F8A1
:100AB0000CB0D0F810A0D0F81880F10703D10025B1
:100AC00030071CD423E0F90710D00121BA07816058
:100AD00009D4780700F1AA80380700F1B0802046D9
:100AE00000F008FB02E0204600F006FB0025F805B8
:100AF00000F18480F80300F1AA80300707D51BF0CD
:100B0000100004D0206845F400751021C160700702
:100B100008D51BF0080005D020680821C1602046D8
:100B200000F0CAF9B00706D52068C068800702D077
:100B3000204600F0E7F9700607D51AF0100004D03F
:100B4000206845F4806510210161B00608D51AF0CF
:100B5000080005D0206808210161204600F010FA45
:100B6000F00606D520680069800702D0204600F014
:100B70002DFAB00308D519F0100005D02068102117
:100B80004160204600F056FAF00308D519F008003D
:100B900005D0206808214160204600F0B7FA3004F3
:100BA00040F18F805FEA497040F1888006F48070E0
:100BB00008EA102028435FEA8871014648BF41F0E7
:100BC0000201B20558BF01465FEA48700D4648BFB2
:100BD00045F00405700558BF0D4630056ED518F078
:100BE00070006BD010380009052862D8DFE800F0EB
:100BF000035356595C5F45F008055AE020684FF4EE
:100C00008071BA0581600AD4780512D4380519D4E8
:100C1000204600F073FAF8037FF56FAF17E0204627
:100C200000F06EFAF8037FF568AF10E04FF400654E
:100C30005DE705F50055F8037FF55FAF07E04FF47A
:100C4000805554E705F58045F8037FF556AF2068D9
:100C50004FF48031BA0381600AD478030FD438038B
:100C600013D4204600F04EFA30073FF548AF4EE768
:100C7000204600F049FA30073FF541AF47E705F558
:100C8000004530073FF53BAF41E705F580353007BC
:100C90003FF535AF3BE745F010050AE045F020058C
:100CA00007E045F0400504E045F0800501E045F42B
:100CB00080752068816921F07001816120680421BC
:100CC00041602DB1606A284360622046FFF718FE3C
:100CD00001B0BDE8F08F0000B0B5C8B1044690F88F
:100CE000200010B9204600F08FF82068016841F01C
:100CF0000101016000F0ACFB054600BF20684168BF
:100D0000C90707D100F0A4FB401B0B28F6D312E063
:100D10000120B0BD016821F00201016000F098FBE4
:100D2000054600BF2068416889070DD500F090FB9B
:100D3000401B0B28F6D3606A052140F40030606246
:100D4000012084F82010B0BD217E0268012922F024
:100D5000800208BF80320260617E0268012922F0B1
:100D6000400208BF40320260A17E0268012922F0E1
:100D7000200208BF20320260E17E0268012922F0D1
:100D8000100218BF10320260217F0268012922F090
:100D9000080208BF08320260617F0268012922F060
:100DA000040208BF04320260D4E901C2D4E9033569
:100DB00061691A432A431143ACF101021143C16135
:100DC00000200121606284F82010B0BD80B5016868
:100DD00046F20040C4F20000814218BF80BD41F2DB
:100DE0001C01C4F202010A6800F5244022F00072DE
:100DF0000A604FF4C05100F09FF9142000F0A0FBEE
:100E0000162000F09DFB80BDB0B586B0006846F2AC
:100E10000042C4F20002002190420591CDE9031185
:100E2000029101D006B0B0BD41F21800C4F2020038
:100E3000426840F6000442F0007242600268C4F268
:100E4000010442F004020260006802AD00F00400F8
:100E5000019001984FF40060CDE902010491204611
:100E6000294600F0F7F94FF48050029002200390D9
:100E7000032005902046294600F0ECF90420C4F236
:100E80000100016849F6FF72CFF6FF02114001F13F
:100E9000E061016014200021002200F059FB1420C1
:100EA00000F052FB16200021002200F051FB16201A
:100EB00000F04AFB06B0B0BD80B540F2D410C2F2DB
:100EC0000000017841F00101017040F2B01044F2DD
:100ED0004311C2F20000C5F64E71016044F646119E
:100EE000C4F64671416045F63071C7F246518160E3
:100EF00046F67541C0F26C01C0F80B1001F0A4FB7E
:100F000080BD0000B0B582B040F2700540F27C04B4
:100F1000C2F20005C2F200046B1C00212246FFF75A
:100F20001BFD08B102B0B0BD0320226840F2B0043E
:100F30006B78A978C2F20004287040F2B0152468DA
:100F4000C2F20005009105A128460194FFF744F97B
:100F5000284601F079FB02B0B0BD00BF4649464FBC
:100F6000305F69643D25782C6D73673D25785F257A
:100F7000782C6D795F69643D25780D0A00000000CA
:100F800080B540F2D410C2F20000017841F00101B6
:100F9000017040F2B01044F24311C2F20000C5F6F5
:100FA0004E71016044F64611C4F64671416045F643
:100FB0003171C7F24651816046F67541C0F26C014D
:100FC000C0F80B1001F040FB80BD0000B0B582B04E
:100FD00040F2700540F27C04C2F20005C2F2000447
:100FE0006B1C01212246FFF7B7FC08B102B0B0BD6F
:100FF000032022686B78AC78287040F2B015C2F2FA
:10100000000505A128460094FFF7E6F8284601F000
:101010001BFB02B0B0BD00BF4649464F315F69645B
:101020003D25782C206D73673D25785F25780D0A66
:101030000000000070470000B0B5044690F82000A2
:1010400001281DD1022084F820002068016821F0C9
:101050000101016000F0FCF9054600BF206840680E
:10106000C00713D000F0F4F9401B0B28F6D3606AD8
:1010700040F400306062052084F820000120B0BDFB
:10108000606A40F4002060620120B0BD0020606210
:10109000B0BD0000B0B5044690F82000022819D178
:1010A0002068016841F00101016000F0D1F90546B6
:1010B00020684168C90713D100F0CAF9401B0B280A
:1010C000F6D3606A40F400306062052084F82000A6
:1010D0000120B0BD606A40F4801060620120B0BDA4
:1010E000016821F002010160012084F82000002045
:1010F000B0BD00007047000070470000704700005E
:101100007047000070470000704700007047000003
:10111000B0B5044600F09CF9054640F20500C2F265
:1011200000000078611C18BF044400BF00F090F973
:10113000401BA042FAD3B0BD2DE9F04F82B0002988
:1011400000F0858041F20042C4F2010240F2004307
:1011500090424FF00402C4F2010308BF0322009240
:10116000A3F57E726FF01F05019201220F261AE08F
:101170000746BAF5807F24BFAC4604373C6806FAC0
:101180000CF324EA0303042404FA0CF423433B6025
:10119000C36823EA0A03C36031FA02F302F10102D1
:1011A00005F1040553D0541E012303FA04F717EA8E
:1011B000010AF1D0019B4FEA940953F829E040F667
:1011C0000003C4F20103984213D040F60043C4F276
:1011D000010398420AD041F20003C4F20103DDF892
:1011E00000B0984208BF4FF0020B04E04FF0010B33
:1011F00001E04FF0000B05F1200C0CF00C0406FA96
:1012000004F80EEA08070BFA04F4A742B0D1019BD8
:1012100053F8297027EA080743F8297040F2004381
:10122000C4F201031F6827EA0A071F605F6827EA04
:101230000A075F609F6827EA0A079F6040F20C4335
:10124000C4F201031F6827EA0A071F6090E702B093
:10125000BDE8F08F2DE9F04F82B00E68002E00F04F
:10126000F38041F20042C4F20102042340F2004E36
:10127000904208BF03234FF6FF7CC4F2010E009397
:1012800000240123C1F2100C4FF0000A4FF00009B6
:1012900040E0012504F00C030F279F402BEA0707CD
:1012A00005FA03F33B4342F826304E68F203DEF8BA
:1012B000002054BF22EA080242EA0802CEF80020C9
:1012C000DEF80420B30354BF22EA080242EA08020F
:1012D000CEF80420F302DEF8082054BF22EA080208
:1012E00042EA0802B30240F20C43CEF80820C4F2EE
:1012F00001031A6854BF22EA080242EA08021A608F
:1013000001230E680AF1010A36FA0AF204F1040414
:1013100000F09A8003FA0AFB16EA0B08F1D04A683B
:10132000624511DC122A51D8DFE802F0340A424645
:1013300050505050505050505050505050494D0007
:10134000D1F80C9042E000BF4FF6FF75C1F22105C5
:10135000AA420FDC0025C1F21105AA421AD00025CD
:10136000C1F21205AA4215D00025C1F22105AA42F8
:1013700010D02BE00025C1F22205AA420AD0002598
:10138000C1F23105AA4205D00025C1F23205AA42B8
:101390001CD100BF8A6842B1012A14BFC0F814B042
:1013A000C0F810B04FF0080910E04FF004090DE04C
:1013B000CA6802F1080909E04FF0000906E0CA68AE
:1013C00002F1040902E0CA6802F10C09224605464E
:1013D000B8F5807F24BF203A04352E680F27974048
:1013E000BE4309FA02F232432A60CA79D2067FF577
:1013F00088AF41F21803C4F202031A684FEA9A0652
:1014000042F001021A601A6840F6000302F001027D
:101410000192019AAEF57E7252F826B0C4F2010331
:1014200098420FD040F60043C4F2010398423FF4C3
:1014300030AF41F20003C4F20103009D984208BF9F
:10144000022527E7002525E702B0BDE8F08F000060
:1014500040F25030C2F200000068704740F20500D0
:10146000C2F200000078704740F2050040F25031AF
:10147000C2F20000C2F2000100780A68104408605D
:101480007047000080B542F20000C4F2020001681B
:1014900041F010010160032000F06AF80F2000F015
:1014A00005F800F02BF8002080BD0000B0B540F238
:1014B0000502C2F2000240F200011278C2F20001FD
:1014C0004FF47A730968B3FBF2F20446B1FBF2F110
:1014D000084600F0C1FA0F2C4FF001050CD858B99E
:1014E0004FF0FF3021460022002500F031F840F295
:1014F0000800C2F2000004602846B0BD82B041F28C
:101500001800C4F202000168022241F001010160EA
:10151000016801F0010101910199416841F0805198
:101520004160406800F08050009000980420C4F2B0
:101530000100016862F31A61016002B070470000A7
:1015400080B501F07DF980BD80B501F095F980BDD1
:1015500070B514460D46064601F0A6F92946224606
:1015600000F012FD0146304601F0AEF970BD0000FA
:1015700080B501F0BBF980BD2DE9F04381B00028B2
:1015800000F0898042F20008C4F202080446D8F84C
:1015900000000D4600F0070088420CD2D8F8000089
:1015A00020F007002843C8F80000D8F8000000F039
:1015B0000700A8426FD1206841F204098107C4F2F4
:1015C000020917D5410705D5D9F8001041F4E061AB
:1015D000C9F80010010705D5D9F8001041F4605191
:1015E000C9F80010D9F80010A26821F0F0011143E9
:1015F000C9F80010C00745D1D8F8000000F0070076
:10160000A8420CD9D8F8000020F007002843C8F8F9
:101610000000D8F8000000F00700A8423BD1206885
:10162000410707D5D9F80010E26821F4E0611143C1
:10163000C9F80010000708D5D9F80000216920F486
:10164000605040EAC100C9F8000000F04FF8D9F836
:10165000001042F65432C1F30311C0F60002515C8F
:1016600040F2000220FA01F140F20800C2F200004C
:101670000068C2F200021160FFF718FF002001B0FD
:10168000BDE8F0836068022809D0012829D159F803
:10169000041C890307D4012001B0BDE8F08359F888
:1016A000041C8901F7D5D9F8001021F00301084383
:1016B000C9F80000FFF7CCFE064641F2883700BFAC
:1016C000D9F80000616800F00C00B0EB810F93D0F6
:1016D000FFF7BEFE801BB842F2D9032001B0BDE87F
:1016E000F08359F8041C8907D5D5DCE741F2040CD6
:1016F000C4F2020CDCF8003003F00C00082841F2C0
:101700000020C0F27A0018BF7047C3F383420AA1D9
:101710008A5CD90305D440F60010C0F23D00504366
:101720007047DCF8001008A3C1F34041595C5043F6
:10173000B0FBF1F0704700BF02030405060708097B
:101740000A0B0C0D0E0F1010010200002DE9F041E4
:1017500082B0002800F0C4800446007841F2000600
:10176000C007C4F2020643D0706800F00C000428E1
:1017700017D0706800F00C00082802D17068C00310
:101780000FD465682DB1B5F5A02F10D0B5F5803F09
:1017900011D0306820F480303060306820F4802030
:1017A0000CE03068800323D5606808BB98E030689F
:1017B00040F480203060306840F480303060FFF7C3
:1017C00047FE002D054610D03068800310D4FFF787
:1017D0003FFE401B6428F7D904E100BFFFF738FE45
:1017E000401B64284FF0030077D830688003F5D49D
:1017F0002078800718D5706810F00C0F07D070683B
:1018000000F00C00082826D17068C00323D430688B
:10181000800702D52069012862D13068616920F013
:10182000F80040EAC1003060207800073DD5A0698B
:1018300038B30020C4F242200121C0F88014FFF721
:1018400007FE0546706A80072DD4FFF701FE401B96
:101850000228F7D9C6E02069002840F20000C4F24F
:10186000422000F0968001210160FFF7F1FD05465E
:1018700030688007D1D4FFF7EBFD401B0228F7D971
:10188000B0E00020C4F242200021C0F88014FFF72D
:10189000DFFD0546706A800707D5FFF7D9FD401BBD
:1018A0000228F7D99EE000F0DFFB207840071BD428
:1018B000E5698DB1706800F00C00082847D1012D52
:1018C0000ED07068216A00F480328A4208D1616AC1
:1018D00000F47010884203D1002002B0BDE8F0810E
:1018E000012002B0BDE8F081F06910F0805808D105
:1018F000F06940F08050F061F06900F08050019094
:10190000019847F20007C4F200073868C00510D4F8
:10191000386840F480703860FFF79AFD054600BFD4
:101920003868C00505D4FFF793FD401B6428F7D93C
:1019300058E0E5681DB1052D3CD0012D3ED0306A40
:1019400020F001003062306A20F0040039E0002706
:10195000C4F2422700203866FFF77AFD022D0546C3
:101960000CD100BF3068800154D5FFF771FD401BDA
:1019700002284FF00300F5D9AFE700BF30688001BF
:10198000AAD5FFF765FD401B02284FF00300F5D9EB
:10199000A3E700210160FFF75BFD05463068800783
:1019A0007FF542AFFFF754FD401B02284FF00300C4
:1019B000F4D992E7306A40F004003062306A40F0B7
:1019C00001003062FFF744FD002D054641F28837E3
:1019D00014D000BF306A800713D4FFF739FD401BD5
:1019E000B842F7D9032002B0BDE8F081FFF730FD1F
:1019F000401BB8424FF003003FF66FAF306A8007DC
:101A0000F4D4B8F1000F7FF453AFF06920F08050A8
:101A1000F0614DE7206AB0F5803F05D17168A2689A
:101A200021F40031114371607168626A21F474110C
:101A300010430843706001203866FFF709FD044633
:101A4000306880013FF548AFFFF702FD001B022818
:101A50004FF00300F4D940E780B500F053FC80BD9F
:101A6000FEE7000081B041F21C00C4F202000168F0
:101A700041F480210160006800F48020009000980B
:101A800001B0704781B041F21801C4F202010A6846
:101A900002430A60096808400090009801B070474E
:101AA00081B041F21801C4F202010A6802430A60DF
:101AB000096808400090009801B0704781B041F279
:101AC0001801C4F202010A6802430A60096808406A
:101AD0000090009801B070472DE9F047B1F801700F
:101AE0000C4697FAA7F1B1FA81F537FA05F133D030
:101AF000804640F201194FF0011A03E0013537FA30
:101B000005F029D027FA05F0C007F7D0B5F1080095
:101B10000AFA00F040F08066606838BF09FA05F6FE
:101B2000082804D122694046314600F05BF862681B
:101B30004046314600F02EF8606840F00800092861
:101B4000DCD1A2684046314600F05AF8E2684046CF
:101B5000314600F033F8D1E70020BDE8F0870000FF
:101B60008068C1F30F210840401AB0FA80F04009A4
:101B70007047000040F61401C0F30F20C4F20101C9
:101B80000860704740F61001C0F30F20C4F2010155
:101B90000860704780B54FEA116E91FAA1F1B1FA71
:101BA00081F15EF800C089000F238B402CEA03030B
:101BB00002FA01F119434EF8001080BD80B54FEADA
:101BC000116E91FAA1F1B1FA81F15EF800C08900BD
:101BD00004238B402CEA030302FA01F119434EF867
:101BE000001080BDC3684FEA112C23EA11219CFA32
:101BF000ACF3B3FA83F39A401143C160704700001D
:101C000080B54FEA116E91FAA1F1B1FA81F15EF857
:101C100000C0890003238B402CEA030302FA01F180
:101C200019434EF8001080BD43F20000C4F20000DA
:101C30004CF6CC410160704743F20000C4F2000052
:101C400045F255510160704743F20C00C4F20000A8
:101C5000006800F00300B0FA80F04009704700000F
:101C600043F20000C4F200004AF6AA210160704766
:101C700043F20000C4F200004AF6AA210160704756
:101C800043F20400C4F20000042101607047000028
:101C900043F20800C4F2000040F6C411016070472E
:101CA00041F20400C4F20200006800F0F000704746
:101CB00041F20400C4F20200006800F4E0607047E2
:101CC00041F20400C4F20200006800F46050704762
:101CD00041F20400C4F20200006800F00C007047FA
:101CE00010B5044600F000FA206000F0D3F96060FF
:101CF00000F0DEF96168A060084600F0E7F9E060F6
:101D000010BD000041F20400C4F20200006800F4BB
:101D10008030704741F20400C4F20200006800F411
:101D20007010704741F20400C4F202000068C0F372
:101D30004040704743F60000C4F201006FF02001FC
:101D400001607047016921F490410161416921F00E
:101D50002A0141617047000043F60C00C4F2010003
:101D6000016821F02001016070470000C16841F462
:101D70000051C1607047000043F61400C4F2010036
:101D8000016841F0010101607047000043F60C005A
:101D9000C4F20100016841F02001016070470000B9
:101DA000B0B584B00D46044600F042F810B10120F1
:101DB00004B0B0BDE06841F20C6120EA010CD5E945
:101DC0000121D5E9033042EA0C021A431043E060D6
:101DD000204600F063F86969204600F059F868462B
:101DE000FFF77EFF44F20040C4F2000084420FD0AF
:101DF00044F60000C4F20000844209D043F600001B
:101E0000C4F2010084420CBF0399002119B9CEE746
:101E100002990029CBD02A68002AC8D0204600F0B9
:101E200017F8002004B0B0BD0068C0F34010704740
:101E3000C068C0F340307047C068C0F340107047BE
:101E400043F60400C4F201000068C0B2704700000D
:101E5000192359439200B1FBF2F148F21F5CC5F21D
:101E6000EB1CA1FB0C3252096FF0630302FB031160
:101E7000322303EB0111A1FB0C13F02101EA5311F2
:101E800001EB0211C3F3431289B211448160704720
:101E9000426922F44072114341617047026922F4A1
:101EA000405211430161704780B52020FFF7F8FDD3
:101EB0000820FFF7F5FD0420FFF7F2FD80BD0000CC
:101EC00080B5FFF7B1FEFFF7B7FEFFF7D9FEFFF7CA
:101ED000DFFE00BFFFF7B8FE0128FBD1FFF7C8FE09
:101EE00080BD00002DE9F0418CB00027CDE90A77D4
:101EF000CDE90877CDE90677CDE90477CDE902771A
:101F0000CDE90077FFF7AEFD0820FFF7D7FD44F6D7
:101F100000040920C4F2000440F2040801900320E8
:101F200004F544456E46C0F20448CDE90207284650
:101F30003146CDF80080FFF7CFFD08F10410009086
:101F40000420019028463146FFF7C6FD4FF4E130EA
:101F5000CDE905070C20CDE9090705A92046CDE903
:101F600007770B97FFF71CFF2046FFF7EBFE204695
:101F7000FFF7FCFE0CB0BDE8F0810000FEE70000BA
:101F8000FEE700000020704700F0070080F0070324
:101F9000042B28BF04234FF0FF3C03380CFA03F353
:101FA00038BF0020994381400CFA00F022EA00007B
:101FB000084370477047000070B586B00020059058
:101FC000CDE90300CDE901000420FFF75BFD082007
:101FD0000824FFF757FD1020FFF754FD022042F6BA
:101FE0002C360294039001206FF00705C0F600061E
:101FF00001AC05907019C168806801912146FFF716
:102000006BFD0835202DF5D14FF4FA7000F07EFC01
:1020100006B070BD70B586B0002404200594CDE9EB
:102020000344CDE90144FFF72DFD0820FFF72AFD09
:102030001020FFF727FD01200290022042F66C36A7
:10204000CDE903046FF00305C0F6000601AC00BF44
:1020500070198168406801912146FFF73DFD083500
:102060000C2DF5D106B070BD81B040F20000C2F277
:102070000000006844F6D351C1F26201A0FB0101E7
:10208000480A009000BF0098411E00280091F9D135
:1020900001B0704710B50446FFF702FE42F6543116
:1020A000C0F30310C0F60001085C24FA00F010BD74
:1020B00010B50446FFF7FCFD42F66431000AC0F695
:1020C0000001085C24FA00F010BD000010B50446C1
:1020D000FFF7F6FD42F66431C00AC0F60001085C65
:1020E00024FA00F010BD000080B5FFF7F1FD0828CC
:1020F0001ABF41F20020C0F27A0000F001F880BD62
:1021000010B5FFF7FFFDB0F5803F09D1FFF70AFEDC
:1021100041F200210130C0F27A01B1FBF0F403E09A
:1021200040F60014C0F23D04FFF7F4FD022101EB7C
:102130009040604310BD000080B5FFF781FE40F283
:102140002E1CC2F2000C9CF880209CF88110531CBD
:1021500003F07F038B421CBF0CF802008CF8803028
:1021600080BD00002DE9F0438DB000274FF4804082
:10217000CDE90B77CDE90977CDE90777CDE905778B
:10218000CDE90377CDE90177FFF798FC04204FF004
:102190000408FFF793FC43F600090920C4F2010983
:1021A000022402900320A9F5405501AEC0F202447A
:1021B000CDE90307284631460194FFF78DFC04F171
:1021C0000210CDE9010828463146FFF785FC4FF49F
:1021D0001660CDE906070C20CDE90A0706A9484696
:1021E000CDE908770C97FFF7DBFD00F055FBFFF713
:1021F000C9FE00F061FB00F037FBFFF79BFDFFF726
:10220000C5FDFFF7B9FD4846FFF79CFD4846FFF7BF
:10221000ADFD0DB0BDE8F08343F60001C4F201014D
:102220000A685206FCD548607047000010B5017876
:10223000002908BF10BD441EC8B2FFF7EDFFA1780A
:1022400001340029F8D110BD40F2700CC2F2000C2C
:102250009CF80000002808BF704740F27C02C2F2E0
:102260000002D2E90313022908BF002B04D0002981
:1022700008BF082B0ED07047116840F2B402C2F2BA
:10228000000212681140914202BF01208CF8000048
:102290007047F0E7116840F2B402C2F2000212681F
:1022A0001140914204BF02208CF8000070470000EA
:1022B0007047000080B540F24430C2F20000A8210F
:1022C000017040F2D411C2F200010978427801F0A5
:1022D0001E0102F00F0242EAC101417040F2B0005B
:1022E000C2F20000006840F29801C2F20001002230
:1022F0000823C1E90002C1E902220B610A75FEF759
:1023000097F980BDB0B501380024B4EB106F1CBF45
:102310000120B0BD4EF21005CEF2000568604FF00E
:10232000FF300F2100F0D0FA0720AC602860204673
:10233000B0BD000080B5FFF797F880BD70B590B0D4
:1023400006AC20462821FEF75BF809200025069000
:102350004FF480300226CDE90705CDE90D604FF43A
:10236000E01001210F9020460595CDE90355CDE9F8
:1023700001550A910C91FFF7E9F978B90F20CDE9E1
:1023800001064FF48060CDE9040501A80221039500
:10239000FFF7F2F8002804BF10B070BDFEF7A0F9F7
:1023A0007047000080B500F0EDF880BD70B540F2D8
:1023B0000405C2F200052878042829D8DFE800F0D7
:1023C000032B476A130042F67C30C0F60000FFF78B
:1023D0002DFFFFF73DF840F2B801C2F2000108609E
:1023E0000120287070BD00F01BFA00F03BF940F2AC
:1023F000BC01C2F20001002808605BD140F2D41099
:10240000C2F20000017801F0E1010231017070BDFB
:102410000020287070BDFFF71BF840F2B804C2F22C
:1024200000042168461AFFF719F84FF47A6148430F
:10243000864242D940F2D410C2F20000017801F085
:10244000E10102310170FFF703F8206073E040F210
:10245000C000C2F200000168046A40F24030C2F2DB
:1024600000000829046059D12046FDF765FF0828BF
:1024700054D140F2D410C2F200000178A27921F0C8
:102480001E01312A017049D02278312A3AD141F017
:10249000040142E0FEF7DCFF40F2B801C2F20001A5
:1024A0000968441AFEF7DAFF40F6B831484384421F
:1024B00098BF70BD0020287070BD40F2BC00C2F211
:1024C00000000468207900F097F940F2C00201464C
:1024D000C2F20002204600F0E7F840F24C31C2F2AE
:1024E00000010228087004D0012893D1022028702E
:1024F00070BD0020087042F67C30C0F60000FFF787
:1025000095FE70BD6278312A02D141F0060104E0E7
:10251000E278312A02D141F01001017040F24C30D2
:10252000C2F2000000210170FEF792FF40F2B801F4
:10253000C2F2000108600320287070BD80B540F22F
:10254000D410C2F200000078C10708D100F01E00CC
:1025500002280DD140F60800FFF714FB0CE040F212
:102560000440FFF707FB40F60800FFF70BFB80BDB8
:1025700040F60800FFF7FEFA40F20440FFF702FBC6
:1025800080BD000070B5FEF763FF40F22C11C2F26F
:1025900000010A7840F228150446002AC2F200051C
:1025A00002BF2C6001200870FFF74EFE032821D0E7
:1025B000022817D0012823D1FFF77CFE40F2D41166
:1025C000C2F200010A78002818BF012002F0FE02C2
:1025D0001044087040F27000C2F200000021017047
:1025E0002C600DE040F2D410C2F20000017801F03E
:1025F000FE01017040F27000C2F200000021017083
:102600002868261AFEF72AFF4FF47A61484386426B
:1026100098BF70BDFFF74EFE48B140F2D410C2F231
:102620000000017841F001010170FEF73DF82C60D7
:1026300070BD000044F60001C4F200010A685206B1
:10264000FCD548607047000010B50178002908BF2C
:1026500010BD441EC8B2FFF7EDFFA1780134002978
:10266000F8D110BD10B540F22D10C2F20000017873
:10267000002940F20021C2F2000103D100220A70B9
:1026800001220270087810B1002450B906E040F22F
:1026900004240122C2F200040A7010B9204600F09E
:1026A00061F8204610BD00002DE9F04104461546B2
:1026B00022784068A668012A0DD0AABB51293ED0D5
:1026C000282933D104F10C00C4F8D800012020706F
:1026D000002000262AE00D2917D1471C20444FF086
:1026E000000880F80C8004F1D401284668220136E5
:1026F000FDF741FE40F24C30C2F2000001212E6095
:1027000084F800800170384610E0C6280CD869B102
:1027100020291CD1182E1ED8011901360D3104EBC9
:102720008602C2F8D81018E000212170606040F2E3
:102730004C30C2F200000078A660BDE8F08140F2A3
:102740004C31C2F2000102200870BDE8F08122186D
:1027500001301173EAE700212170211800220130B5
:102760000A73E3E700210170C0F8D410704700003D
:1027700010B543F60004C4F201042046FFF754FBF1
:10278000002808BF10BD2046FFF756FB002818BFE1
:10279000FFF7D2FC10BD000010B544F20044C4F2B3
:1027A00000042046FFF740FB002808BF10BD20466C
:1027B000FFF742FB002818BFFFF7BEFC10BD00006A
:1027C00010B544F60004C4F200042046FFF72CFBC9
:1027D000002808BF10BD2046FFF72EFB002818BFB9
:1027E000FFF7AAFC10BD000080B540F2D810C2F27D
:1027F0000000FEF753F980BD40F22E11C2F2000135
:1028000091F8800091F88120824204BF0020704737
:10281000885C013202F07F0281F88120704700005D
:1028200080B5FFF799FA40F22E10C2F200000021A5
:10283000A0F88010FFF7AAFA80BD0000FEE70000B4
:10284000002848BF704700F01F01012202FA01F181
:102850004EF280124009CEF2000242F82010BFF37F
:102860004F8FBFF36F8F70474EF20410CEF200000F
:102870002021016070470000002848BF704700F029
:102880001F01012202FA01F14EF200124009CEF2BC
:10289000000242F8201070474EF60C50CEF20000B5
:1028A0000068C0F3022070474EF60C50CEF20000D4
:1028B0000068C0F3022070474EF225410001CEF2BD
:1028C00000010870704700004EF6145300F00F022C
:1028D000CEF2000309011A4400F16043B0F1FF3F5A
:1028E000C8BF03F564421170704700004EF60C51EA
:1028F000CEF200010A684FF6FF031A4060F30A2285
:1029000042F0806040F0FD700860704741F21C02A8
:10291000C4F20202136840F6100143F00403C4F24B
:102920000001136000224A6148F69F428A614FF01D
:10293000FF3202EB4000C861486840F00100486087
:10294000086820F00100086051F8100C40F0010008
:1029500041F8100C0868C007FCD051F8100C20F0AA
:10296000010041F8100C086820F001000860704771
:1029700070B58AB040F2D81046F20041C2F20000B1
:10298000C4F2000140F2001C122200254FF4402343
:102990004FF48014C0F2010C80E826004FF48071DF
:1029A000C0E90353C0E9054C8183FEF795F900287F
:1029B00018BFFDF795FEFDF799FE40F2B401C2F293
:1029C0000001086002214FF4804240F2B00640F25C
:1029D000B01460F34C1261F31F20C2F20006C2F281
:1029E0000004306019A12046FDF7F6FB2046FFF7F2
:1029F0002BFE306869464001CDE900054FF6E070D6
:102A0000CDE902050120CDE9070040F2D810C2F25D
:102A10000000059504950695FDF7E8FE002818BF0F
:102A2000FDF75EFE40F2D814C2F200042046FEF725
:102A300003FB204648F61261FDF772FE40F270007B
:102A4000C2F20000002101700AB070BD4652414D33
:102A5000455F49443D25780D0A000000FEF712FD50
:102A6000FFF76CFCFFF7A8FAFFF7D4FAFFF77AFB41
:102A7000FFF71AFAFFF736FA40F2D410C2F200005C
:102A8000017801F0E001033101706420FEF740FBA2
:102A9000FFF716FAFFF76CFF40F2B010C2F2000029
:102AA000002162B6017347F27241C0F60D218160C8
:102AB00047F25F31C6F27411416044F64D31C5F200
:102AC00049010160FFF7C0FDFFF770FCFFF76AFCEA
:102AD000FFF734FDFFF7C4F8F6E730313233343511
:102AE000363738394142434445464030580030314A
:102AF0003233343536373839616263646566403065
:102B0000780000000010014040400000001001402B
:102B1000808000000010014001000104001001400D
:102B200002000204000801400100010400100140FD
:102B30004040000000100140808000000010014073
:102B400001000104001001400200020400080140DD
:102B50000100010400000000000000000102030465
:102B600006070809000000000102030400080140F4
:102B700008080000000801400404000051310D0065
:102B8000A02B000800000020100000002801000811
:102B9000B02B000810000020480900004401000884
:102BA0000024F400040100001000000000000000F8
:04000005080000ED02
:00000001FF
