:020000040800F2
:10000000680900208901000841160008F90F00085E
:100010003D16000871030008B11A00080000000036
:10002000000000000000000000000000751700083C
:10003000850300080000000075160008A9170008D5
:10004000A3010008A3010008A3010008A301000800
:10005000A3010008A3010008A3010008A3010008F0
:10006000A3010008A3010008A3010008A3010008E0
:10007000A3010008A3010008A3010008A3010008D0
:10008000A3010008A3010008A3010008A3010008C0
:10009000651A0008A301000875030008A301000801
:1000A000A3010008A3010008A3010008A3010008A0
:1000B000A3010008A3010008A3010008A301000890
:1000C000A3010008A3010008A3010008A301000880
:1000D000A3010008491A0008A3010008A3010008B1
:1000E000A3010008A3010008A301000800F002F822
:1000F00000F03AF80AA090E8000C82448344AAF188
:100100000107DA4501D100F02FF8AFF2090EBAE885
:100110000F0013F0010F18BFFB1A43F0010318473B
:10012000841A0000A41A0000103A24BF78C878C1CD
:10013000FAD8520724BF30C830C144BF04680C60ED
:10014000704700000023002400250026103A28BF35
:1001500078C1FBD8520728BF30C148BF0B60704739
:100160001FB51FBD10B510BD00F0C7F81146FFF751
:10017000F7FF01F0F1FC00F0E5F803B4FFF7F2FF40
:1001800003BC00F0EDF8000009488047094800472B
:10019000FEE7FEE7FEE7FEE7FEE7FEE7FEE7FEE737
:1001A000FEE7FEE704480549054A064B7047000094
:1001B00011180008ED0000086803002068090020FD
:1001C000680500206805002010B5431C02E010F807
:1001D000011B71B18107FAD14FF0013202C88C1AAC
:1001E0008C4314EAC211F9D0C01A0A0603D0C01E0B
:1001F00010BDC01A10BD0A0401D0801E10BD090236
:10020000FCD0401E10BD032A40F2308010F0030CD9
:1002100000F0158011F8013BBCF1020F624498BF59
:1002200011F801CB00F8013B38BF11F8013BA2F1F6
:10023000040298BF00F801CB38BF00F8013B11F071
:10024000030300F02880083AC0F0088051F8043B0E
:10025000083A51F804CBA0E80810F5E7121D5CBF7E
:1002600051F8043B40F8043BAFF30080D20724BFB1
:1002700011F8013B11F801CB48BF11F8012B24BF45
:1002800000F8013B00F801CB48BF00F8012B704794
:1002900070477047704710B5203AC0F00B80B1E846
:1002A0001850A0E81850B1E81850A0E81850203AAB
:1002B000BFF4F5AF5FEA027C24BFB1E81850A0E8B4
:1002C000185044BF18C918C0BDE810405FEA827CCE
:1002D00024BF51F8043B40F8043B08BF7047D207E5
:1002E00028BF31F8023B48BF11F8012B28BF20F886
:1002F000023B48BF00F8012B7047754600F02CF810
:10030000AE4605006946534620F00700854618B002
:1003100020B5FFF747FFBDE820404FF000064FF043
:1003200000074FF000084FF0000BAC46ACE8C009E6
:10033000ACE8C009ACE8C009ACE8C00921F007018D
:100340008D46704710B50446AFF300802046BDE8E7
:100350001040FFF712BF0000004870471000002057
:1003600001491820ABBEFEE72600020070470000DE
:10037000FEE7000080B540F26C10C2F2000000F011
:1003800025F980BD70470000EFF3108072B600BF02
:10039000FEE7000090F82020013A012A04D8006806
:1003A00000F11402002004E000F1240201204FF4C7
:1003B000802113681943116070470000B0B50268CE
:1003C00090F82030013B012B27D8D2F800020123FE
:1003D00040F00100C2F80002D1F814E0CC690EF040
:1003E0001F0003FA00F0D2F81C326FEA000C8343BE
:1003F000012CC2F81C3216D064BBD2F80C3203EACE
:100400000C03C2F80C32CB688C8844EA034302EB3D
:10041000CE04C4F840320B4614E0416A41F4802116
:1004200041620120B0BDD2F80C320343C2F80C3255
:100430000B688C8844EA034302EBCE04C4F84032D4
:1004400001F10C038C681B8843EA044302EBCE04E1
:10045000C4F84432D2F804328D6943EA0004D1F87A
:1004600010E0096A002D08BF03EA0C04C2F8044238
:10047000D2F81432BEF1000F43EA000408BF03EAC9
:100480000C040129C2F8144204D1D2F81C1208430A
:10049000C2F81C02D2F8000220F00100C2F80002EB
:1004A0000020B0BD80B500F001F880BD406A704703
:1004B00010B590F82040013C012C0CD8D0F800C0B9
:1004C00079B1DCF81040A4070FD100F1240101201C
:1004D0004FF4001270E000F1240101204FF480225B
:1004E0006AE0DCF80C40A4076AD0046804EB011C45
:1004F000DCF8B0410CF5D87E14F004049460DCF80C
:10050000B04119BFE4085460640D1460DEF8004087
:10051000002904F00204D460DCF8B44104F00F04B4
:100520001461DCF8B441C4F307249461DCF8B441ED
:100530004FEA14445461DCF8B8211A70026802EBE7
:100540000112D2F8B8214FEA12225A70026802EB67
:100550000112D2F8B8214FEA12429A70026802EBF7
:100560000112D2F8B8214FEA1262DA70026802EB87
:100570000112D2F8BC211A71026802EB0112D2F802
:10058000BC214FEA12225A71026802EB0112D2F822
:10059000BC214FEA12429A71026802EB0112D2F8B2
:1005A000BC214FEA1262DA71006814BF00F1100139
:1005B00000F10C01002020220B681A430A6010BDD4
:1005C00000F1240101204FF40012F5E72DE9F04F6E
:1005D00081B0044600684669D0F804908768D0F876
:1005E0000CB0D0F810A0D0F81880F10703D1002586
:1005F00030071CD423E0F90710D00121BA0781602D
:1006000009D4780700F1AA80380700F1B0802046AD
:1006100000F038FA02E0204600F036FA0025F8052E
:1006200000F18480F80300F1AA80300707D51BF0A1
:10063000100004D0206845F400751021C1607007D7
:1006400008D51BF0080005D020680821C1602046AD
:1006500000F0A4F9B00706D52068C068800702D072
:10066000204600F09DF9700607D51AF0100004D05E
:10067000206845F4806510210161B00608D51AF0A4
:10068000080005D0206808210161204600F0A8F983
:10069000F00606D520680069800702D0204600F0E9
:1006A000A1F9B00308D519F0100005D02068102179
:1006B0004160204600F0B6F9F00308D519F00800B3
:1006C00005D0206808214160204600F0E7F9300499
:1006D00040F18F805FEA497040F1888006F48070B5
:1006E00008EA102028435FEA8871014648BF41F0BC
:1006F0000201B20558BF01465FEA48700D4648BF87
:1007000045F00405700558BF0D4630056ED518F04C
:1007100070006BD010380009052862D8DFE800F0BF
:10072000035356595C5F45F008055AE020684FF4C2
:100730008071BA0581600AD4780512D4380519D4BD
:10074000204600F0A3F9F8037FF56FAF17E02046CD
:1007500000F09EF9F8037FF568AF10E04FF40065F4
:100760005DE705F50055F8037FF55FAF07E04FF44F
:10077000805554E705F58045F8037FF556AF2068AE
:100780004FF48031BA0381600AD478030FD4380360
:1007900013D4204600F07EF930073FF548AF4EE70E
:1007A000204600F079F930073FF541AF47E705F5FE
:1007B000004530073FF53BAF41E705F58035300791
:1007C0003FF535AF3BE745F010050AE045F0200561
:1007D00007E045F0400504E045F0800501E045F400
:1007E00080752068816921F0700181612068042191
:1007F00041602DB1606A284360622046FFF752FED7
:1008000001B0BDE8F08F0000B0B5C8B1044690F863
:10081000200010B9204600F071F82068016841F00E
:100820000101016000F03AFA054600BF2068416806
:10083000C90707D100F032FA401B0B28F6D312E0AB
:100840000120B0BD016821F00201016000F026FA2C
:10085000054600BF2068416889070DD500F01EFAE3
:10086000401B0B28F6D3606A052140F4003060621B
:10087000012084F82010B0BD217E0268012922F0F9
:10088000800208BF80320260617E0268012922F086
:10089000400208BF40320260A17E0268012922F0B6
:1008A000200208BF20320260E17E0268012922F0A6
:1008B000100218BF10320260217F0268012922F065
:1008C000080208BF08320260617F0268012922F035
:1008D000040208BF04320260D4E901C2D4E903353E
:1008E00061691A432A431143ACF101021143C1610A
:1008F00000200121606284F82010B0BDB0B586B040
:1009000040F60004C4F201040068A4F5244200216A
:1009100090420591CDE90311029101D006B0B0BD1E
:1009200041F21800C4F20200426802AD42F00072C7
:100930004260426802F000720192019A026842F03D
:1009400004020260006800F00400019001984FF476
:100950000060CDE9020104912046294600F0A0F88C
:100960004FF480500290022003900320059020460F
:10097000294600F095F814200021002200F00CFB1D
:10098000142000F005FB16200021002200F004FBDB
:10099000162000F0FDFA06B0B0BD00007047000060
:1009A00010B540F27004C2F2000440F27C02631CF5
:1009B000C2F200020021FFF77BFD002818BF10BD26
:1009C00040F61000C4F20100016841F4802101608A
:1009D000016841F0080101600320207010BD000093
:1009E0007047000010B540F27004C2F2000440F2FB
:1009F0007C02631CC2F200020121FFF759FD0028AE
:100A000018BF10BD40F61000C4F20100016841F4A7
:100A100080210160016841F008010160032020701D
:100A200010BD000070470000B0B5044690F82000EB
:100A300001281DD1022084F820002068016821F0DF
:100A40000101016000F02AF9054600BF20684068F6
:100A5000C00713D000F022F9401B0B28F6D3606AC0
:100A600040F400306062052084F820000120B0BD11
:100A7000606A40F4002060620120B0BD0020606226
:100A8000B0BD0000704700007047000070470000D4
:100A9000704700007047000070470000704700007A
:100AA0002DE9F04F82B00E68002E00F0F38041F285
:100AB0000042C4F20102042340F2004E904208BFFB
:100AC00003234FF6FF7CC4F2010E009300240123A0
:100AD000C1F2100C4FF0000A4FF0000940E0012570
:100AE00004F00C030F279F402BEA070705FA03F3D6
:100AF0003B4342F826304E68F203DEF8002054BF34
:100B000022EA080242EA0802CEF80020DEF80420B9
:100B1000B30354BF22EA080242EA0802CEF80420D6
:100B2000F302DEF8082054BF22EA080242EA080273
:100B3000B30240F20C43CEF80820C4F201031A6855
:100B400054BF22EA080242EA08021A6001230E6832
:100B50000AF1010A36FA0AF204F1040400F09A805C
:100B600003FA0AFB16EA0B08F1D04A68624511DC69
:100B7000122A51D8DFE802F0340A42465050505051
:100B8000505050505050505050494D00D1F80C909A
:100B900042E000BF4FF6FF75C1F22105AA420FDC0B
:100BA0000025C1F21105AA421AD00025C1F2120592
:100BB000AA4215D00025C1F22105AA4210D02BE08F
:100BC0000025C1F22205AA420AD00025C1F2310552
:100BD000AA4205D00025C1F23205AA421CD100BFAD
:100BE0008A6842B1012A14BFC0F814B0C0F810B02E
:100BF0004FF0080910E04FF004090DE0CA6802F157
:100C0000080909E04FF0000906E0CA6802F104098A
:100C100002E0CA6802F10C0922460546B8F5807F59
:100C200024BF203A04352E680F279740BE4309FAA7
:100C300002F232432A60CA79D2067FF588AF41F2C8
:100C40001803C4F202031A684FEA9A0642F001023E
:100C50001A601A6840F6000302F001020192019A3C
:100C6000AEF57E7252F826B0C4F2010398420FD05E
:100C700040F60043C4F2010398423FF430AF41F222
:100C80000003C4F20103009D984208BF022527E734
:100C9000002525E702B0BDE8F08F000040F2643087
:100CA000C2F200000068704740F20900C2F2000082
:100CB00000787047F0B581B0B0B3044690F83D00BD
:100CC00028B9002084F83C00204600F0BFF824201A
:100CD00084F83D002068016821F00101016001688D
:100CE00041F400410160016821F40041016000F01D
:100CF0006DF948F28041C0F21E0140F600126568AD
:100D000088424FF00001C0F23D0248F2A16C4FF062
:100D1000000338BF01219042C0F2010C38BF01230B
:100D2000654538BF0B4613B1012001B0F0BD4DF64B
:100D30008361C4F21B31A0FB011221684FEA924E7D
:100D40004B684FF4967623F03F0343EA92434B609F
:100D500044F6D3530F6A0EFB06F6C1F26203A6FBFC
:100D6000033627F03F03B709654538BF970C7A1C57
:100D70001A430A62CA6948F2A0674CF6FF73C0F2D0
:100D80000107BD4222EA030C0AD801386A00B0FB11
:100D9000F2F001306FF31F30042898BF04202BE0DD
:100DA000A368A0F1010E9BB119206843BEFBF0F0CF
:100DB0000422013062F31F30000512D09BB11920CC
:100DC0006843BEFBF0F00422013062F31F3011E0F3
:100DD00005EB4500BEFBF0F001306FF31F3000055E
:100DE000ECD1012008E005EB4500BEFBF0F001303E
:100DF0006FF31F3040F4004040EA0C00C8610868FF
:100E0000D4E9072320F0C000104318430860886825
:100E100048F2FF3204F10C0790438CCF1843104383
:100E2000A6698860C86820F0FF0038433043C86076
:100E3000086840F00100086000202021206484F848
:100E40003D10206384F83E0001B0F0BD10B586B0BF
:100E5000016845F60000C4F2000081424FF0000135
:100E6000CDE90411CDE9021101D006B010BD41F267
:100E70001804C4F20204216800F5344041F008016E
:100E80002160216801F00801019101994FF440614E
:100E90000291122103910321059102A9FFF700FE9F
:100EA000606840F480006060606800F48000019039
:100EB000019806B010BD000040F2090040F2643114
:100EC000C2F20000C2F2000100780A681044086013
:100ED0007047000080B542F20000C4F202000168D1
:100EE00041F010010160032000F066F80F2000F0CF
:100EF00005F800F02BF8002080BD0000B0B540F2EE
:100F00000902C2F2000240F200011278C2F20001AE
:100F10004FF47A730968B3FBF2F20446B1FBF2F1C5
:100F2000084600F065F80F2C4FF001050CD858B9B1
:100F30004FF0FF3021460022002500F02DF840F24E
:100F40000C00C2F2000004602846B0BD82B041F23D
:100F50001800C4F202000168022241F001010160A0
:100F6000016801F0010101910199416841F080514E
:100F70004160406800F08050009000980420C4F266
:100F80000100016862F31A61016002B0704700005D
:100F900080B500F097FD80BD70B514460D4606463D
:100FA00000F0A8FD2946224600F04EFB01463046DF
:100FB00000F0B0FD70BD000080B500F0BDFD80BD4B
:100FC00040F20000C2F200000068704780B5FFF7F1
:100FD000F7FF41F20401C4F20201096841F69632BA
:100FE000C1F30221C0F60002515CC84080BD000080
:100FF00080B500F0C1FB80BDFEE7000081B041F28A
:101000001801C4F202010A6802430A600968084034
:101010000090009801B0704781B041F21801C4F20D
:1010200002010A6802430A600968084000900098BB
:1010300001B0704742F20000C4F20200006800F004
:101040000700704742F20000C4F202000168022269
:1010500062F30201016070472DE9F047B1F80170B9
:101060000C4697FAA7F1B1FA81F537FA05F133D0BA
:10107000804640F201194FF0011A03E0013537FABA
:1010800005F029D027FA05F0C007F7D0B5F1080020
:101090000AFA00F040F08066606838BF09FA05F689
:1010A000082804D122694046314600F049F86268B8
:1010B0004046314600F01CF8606840F008000928FE
:1010C000DCD1A2684046314600F048F8E26840466C
:1010D000314600F021F8D1E70020BDE8F08700009C
:1010E00040F61400C4F201000C21016070470000BA
:1010F00080B54FEA116E91FAA1F1B1FA81F15EF873
:1011000000C089000F238B402CEA030302FA01F18F
:1011100019434EF8001080BD80B54FEA116E91FA68
:10112000A1F1B1FA81F15EF800C0890004238B407F
:101130002CEA030302FA01F119434EF8001080BDB6
:10114000C3684FEA112C23EA11219CFAACF3B3FADD
:1011500083F39A401143C1607047000080B54FEAA5
:10116000116E91FAA1F1B1FA81F15EF800C0890027
:1011700003238B402CEA030302FA01F119434EF8D2
:10118000001080BD41F20400C4F20200006800F0CB
:10119000F000704741F20400C4F20200006800F45D
:1011A000E060704741F20400C4F20200006800F4FD
:1011B0006050704741F20400C4F20200006800F081
:1011C0000C00704741F20400C4F20200006800F015
:1011D0000C00704710B5044600F078FA206000F06B
:1011E0004BFA606000F056FA6168A060084600F0B3
:1011F0005FFAE06010BD000041F20000C4F202009E
:10120000016841F4803101607047000041F2000044
:10121000C4F202000068C0F34040704741F204008D
:10122000C4F2020001681D2262F31541016070479B
:1012300041F20000C4F20200016841F080710160D7
:101240007047000041F20400C4F20200006800F49C
:101250008030704741F20400C4F20200006800F4DC
:101260007010704741F20400C4F202000068C0F33D
:101270004040704741F20000C4F202000068C0F331
:101280004060704741F20400C4F20200016821F09E
:10129000F00101607047000041F20400C4F2020056
:1012A0000168042262F30A210160704741F20400E0
:1012B000C4F20200016821F460510160704700002F
:1012C00041F20400C4F202000168022262F301014B
:1012D0000160704740F20001C2F2000108607047EF
:1012E00043F60000C4F201006FF020010160704776
:1012F00043F61000C4F20100016821F4904101603E
:10130000416821F02A0141607047000043F60C005B
:10131000C4F20100016821F0200101607047000063
:1013200043F60C00C4F20100016841F40051016071
:101330007047000043F61400C4F20100016841F058
:10134000010101607047000043F60C00C4F2010087
:10135000016841F02001016070470000B0B584B021
:101360000D46044600F046F810B1012004B0B0BDAF
:10137000E06841F20C6120EA010CD5E90121D5E9D0
:10138000033042EA0C021A431043E060204600F0AA
:101390006BF86969204600F061F86846FFF71AFFAC
:1013A00044F20040C4F2000084420FD044F6000032
:1013B000C4F20000844209D043F60000C4F20100E8
:1013C00084420CBF0399002119B9CEE70299002984
:1013D000CBD02A68002AC8D0204600F01FF8002091
:1013E00004B0B0BD43F60000C4F201000068C0F3D1
:1013F00040107047C068C0F34030704743F60C009F
:10140000C4F201000068C0F34010704743F60400C6
:10141000C4F201000068C0B27047000019235943AC
:101420009200B1FBF2F148F21F5CC5F2EB1CA1FB8C
:101430000C3252096FF0630302FB0311322303EBFA
:101440000111A1FB0C13F02101EA531101EB021170
:10145000C3F3431289B2114481607047426922F498
:101460004072114341617047026922F440521143B6
:101470000161704710B58AB040F26C1046F200412D
:10148000C2F20000C4F2000100244FF4402E4FF4D9
:10149000801C4FF48073122280E81600C0E9034ECE
:1014A000C0E905C38383FFF7AFF9002818BFFEF733
:1014B0006BFF0120CDE9070040F26C10C2F2000082
:1014C00069460694CDE90444CDE90244CDE90044DF
:1014D000FEF774FF002818BFFEF756FF40F26C14A9
:1014E000C2F200042046FFF79FFA204648F6124158
:1014F000FEF750FF40F27000C2F2000000210170C0
:101500000AB010BD10B586B0002420200594CDE9A6
:101510000344CDE90144FFF771FD0420FFF76EFDA0
:101520000820FFF76BFDFFF7DBFD40F60C40019054
:10153000012002900220CDE9030440F60000C4F22D
:10154000010001A9FFF788FD06B010BD80B540F28B
:10155000941045F60001C2F20000C4F2000148F206
:10156000A06200234FF4804CC0F2010280E80E001C
:10157000C0E9033CC0E90533C0E90733FFF79AFB34
:10158000002818BFFEF700FF80BD00002DE9F041E4
:101590008CB000264FF48040CDE90A66CDE908669C
:1015A000CDE90666CDE90466CDE90266CDE90066BF
:1015B000FFF732FD04204FF00408FFF72DFD09204E
:1015C00040F60004022701900320C4F201046D4696
:1015D000C0F20247CDE90206204629460097FFF7F0
:1015E0003BFD07F10210CDE9000820462946FFF730
:1015F00033FD00F077FA00F025F800F083FA00F0F0
:1016000059FA4FF41660CDE905060C20CDE909061C
:1016100004F5405005A9CDE907660B96FFF79EFE3D
:10162000FFF766FEFFF77CFEFFF75AFEFFF78CFE22
:10163000FFF780FE0CB0BDE8F0810000FEE700007F
:10164000FEE700000020704700F0070080F007036D
:10165000042B28BF04234FF0FF3C03380CFA03F39C
:1016600038BF0020994381400CFA00F022EA0000C4
:10167000084370477047000010B50446FFF782FD2D
:1016800041F68631C0F30310C0F60001085C24FA6D
:1016900000F010BD10B50446FFF77CFD41F6963111
:1016A000000AC0F60001085C24FA00F010BD00003A
:1016B00010B50446FFF776FD41F69631C00AC0F634
:1016C0000001085C24FA00F010BD000080B5FFF7AF
:1016D00079FD08281ABF41F20020C0F27A0000F01C
:1016E00001F880BD10B5FFF7ADFDB0F5803F09D121
:1016F000FFF7B8FD41F200210130C0F27A01B1FBE1
:10170000F0F403E040F60014C0F23D04FFF7A2FD40
:10171000022101EB9040604310BD000080B5FFF74F
:1017200075FE40F2A101C2F2000191F8C820885470
:1017300091F8C8000130C2B2C72A88BF002081F8E2
:10174000C80080BD43F60001C4F201010A685206D8
:10175000FCD548607047000010B50178002908BF2B
:1017600010BD441EC8B2FFF7EDFFA1780134002977
:10177000F8D110BD70470000B0B501380024B4EBBB
:10178000106F1CBF0120B0BD4EF21005CEF2000557
:1017900068604FF0FF300F2100F0BCF90720AC600B
:1017A00028602046B0BD000080B5FFF785FB80BDF6
:1017B00080B5FFF747FC00BFFFF73CFC0228FBD1D8
:1017C000FFF71AFDFFF722FD0128FBD1FFF726FDE9
:1017D000FFF72EFDFFF74EFD0128FBD1FFF752FD6D
:1017E000FFF75AFDFFF762FDFFF76AFDFFF7E2FC26
:1017F0000828FBD14AF20020C0F24A40FFF76AFDF8
:101800000F20FFF77BFB002808BF80BDFEF7BCFD63
:101810007047000070B540F20805C2F20005287854
:10182000042800F27D80DFE800F003132F685400E5
:1018300041F69E30C0F60000FFF78EFFFFF72EFA4C
:1018400040F29801C2F2000108600120287070BDCA
:10185000FFF724FA40F29804C2F200042168461A05
:10186000FFF722FA4FF47A61484386425BD940F28F
:101870000400C2F20000017801F0E10102310170C0
:10188000FFF70CFA206021E040F2FC20C2F20000D9
:101890000168006A40F2F822C2F2000208291060D2
:1018A0000BD1FEF791FC082807D140F20400C2F2E8
:1018B0000000017801F0E101017000F0EBF8FFF7A2
:1018C000EDF940F29801C2F200010860032028708F
:1018D00070BD00F0DFF800F03BF840F29C01C2F26E
:1018E00000010860C8B940F20400C2F200000178AB
:1018F00001F0E1010231017070BDFFF7CFF940F254
:101900009801C2F200010968441AFFF7CDF940F6C8
:10191000B8314843844298BF70BD0020287070BD24
:101920000020287070BD40F29C00C2F200000468E4
:10193000207900F09FF840F2FC220146C2F200023A
:10194000204600F02FF80028ECD00220287070BD4F
:1019500010B540F2A000C2F200000178002940F268
:10196000E811C2F2000103D100220A7001220270C4
:101970000A780120C3070CD0002A4FF00000F9D1EB
:1019800040F2EC140120C2F200040870C00706D037
:1019900002E00024C00702D0204600F04FF82046A5
:1019A00010BD00002DE9F04115460446426800785C
:1019B000A66801280BD088BB28293AD104F10C0075
:1019C000C4F8A800012020700022002631E00D2973
:1019D00015D1A0184FF00008571C80F80C8004F1B6
:1019E000A401284668220136FEF70DFC2E6084F81B
:1019F000008001203A46C4E90126BDE8F081942A1E
:101A00000CD8202912D1182E0ED8101901360D30FD
:101A100004EB8601C1F8A800002107E00020207037
:101A2000C4E90126BDE8F08100212170A01801322F
:101A300001730020C4E90126BDE8F0810021017096
:101A4000C0F8A4107047000080B5FFF7CBFC002859
:101A500008BF80BDFFF7D2FC002818BFFFF75EFE6D
:101A600080BD000080B540F26C10C2F20000FEF7AD
:101A7000ADFD80BD40F2A101C2F2000191F8C92084
:101A8000885C0132D3B2C72B88BF002281F8C920FD
:101A90007047000080B5FFF739FC40F2A100C2F2A8
:101AA00000000021A0F8C810FFF74EFC80BD000028
:101AB000FEE700004EF20410CEF20000202101608B
:101AC00070470000002848BF704700F01F01012246
:101AD00002FA01F14EF200124009CEF2000242F881
:101AE000201070474EF60C50CEF200000068C0F394
:101AF000022070474EF60C50CEF200000068C0F392
:101B0000022070474EF225410001CEF2000108701C
:101B1000704700004EF6145300F00F02CEF200039F
:101B200009011A4400F16043B0F1FF3FC8BF03F55B
:101B300064421170704700004EF60C51CEF2000165
:101B40000A684FF6FF031A4060F30A2242F08060F1
:101B500040F0FD7008607047FFF7BCF9FFF728FE02
:101B6000FFF7D0FCFFF786FCFFF710FDFFF7EEFC58
:101B700040F61000C4F20100016841F00801016064
:101B8000FFF748FEFCE70000000000000000010233
:101B90000304060708090000000001020304513194
:101BA0000D000000C81B000800000020100000000D
:101BB00028010008D81B0008100000205809000068
:101BC00044010008000000000024F40003000000AD
:081BD0000401000010000000F8
:04000005080000ED02
:00000001FF
